:020000040000FA
:040000008031E6283D
:100008007E1480312700131D0A280B283528280064
:10001800930120009A0126309B00250092014E3062
:100028009100280095178B110430270092060430A0
:100038009106031020000E1C0314031824282728F7
:1000480020000E14292820000E100E182C282D2808
:100058003228250092019101F001F10127001311C6
:10006800D028931E382839286528280093012000B5
:100078009A0119309B002500920134309100280024
:1000880095178B1120302700920620309106031017
:1000980020008E1C031403185228552820008E14A3
:1000A800572820008E108E185A285B2862282500B1
:1000B800920191010130F0000030F1002700931205
:1000C800D028991D682869289528280093012000C0
:1000D8009A0112309B0025009201273091002800D8
:1000E80095178B11083027009806083097060310DB
:1000F80020000E1D031403188228852820000E15E1
:10010800872820000E110E198A288B28922825008E
:10011800920191010230F0000030F100270099119E
:10012800D028191E98289928C5282800930120004E
:100138009A010E309B00250092011F309100280083
:1001480095178B111030270098061030970603106A
:1001580020000C1E03140318B228B52820000C1622
:10016800B72820000C120C1ABA28BB28C228250070
:10017800920191010330F0000030F10027001912BC
:10018800D0282000911CC928CA28D02828009513F7
:100198008B1520009110D0282000121CD428D528B7
:1001A800E4289601970118148B1561301702A830BE
:1001B80003191602031CE128E228D9281810121086
:1001C8007E1009008031E8287030840000308500F6
:1001D8000A308131B221803120308400003085001E
:1001E80050308131B22180317E1020008131332995
:1001F80021008E160C303D00A500FC3025009E0520
:10020800263020009B0025001308F0390C38930095
:1002180013129317920191012000901070309C04E2
:10022800F0309C059C17F0309E059D179D16E03018
:100238009D051F2990101A08031923292529013023
:1002480026290030FA0090182A292C2901302D2956
:1002580000307A0503191E2921008E12080021009A
:1002680019088739683899008B178B150B170B12EB
:100278008B1081316921813181314F218131803168
:10028800FC20813181319521813181318221813177
:100298004C298031E6282100911420009110F0307B
:1002A8002800970570309504951396179616E03038
:1002B80096052630940027001215111592169116EE
:1002C8009815971518161716080021000E108E108D
:1002D8000E110C1220000E108E100E110C1223009D
:1002E8008C018E0121000C158C168E150E16951397
:1002F80024000C150C168E150E16080092303E00C0
:1003080090000130960004309700980199010C3054
:10031800910092010130930094019501210012147B
:1003280008003F302000980518109601970118081A
:10033800CF39103898000800003400344E340034A7
:1003480034340034273400341F3400342634003465
:1003580019340034123400340E340034640080013F
:100368000131890BB329003400340F341F3427348A
:0E03780034344E3406340E3412341934263424
:020000040001F9
:06000E00FC3FFB3F9F3F99
:00000001FF
